{
  "contractName": "MachineLearningMarketplace",
  "abi": [
    {
      "constant": true,
      "inputs": [],
      "name": "latestId",
      "outputs": [
        {
          "name": "",
          "type": "uint256"
        }
      ],
      "payable": false,
      "stateMutability": "view",
      "type": "function"
    },
    {
      "constant": true,
      "inputs": [
        {
          "name": "",
          "type": "uint256"
        }
      ],
      "name": "models",
      "outputs": [
        {
          "name": "id",
          "type": "uint256"
        },
        {
          "name": "datasetUrl",
          "type": "string"
        },
        {
          "name": "weight",
          "type": "int256"
        },
        {
          "name": "bias",
          "type": "int256"
        },
        {
          "name": "payment",
          "type": "uint256"
        },
        {
          "name": "timestamp",
          "type": "uint256"
        },
        {
          "name": "owner",
          "type": "address"
        }
      ],
      "payable": false,
      "stateMutability": "view",
      "type": "function"
    },
    {
      "constant": true,
      "inputs": [
        {
          "name": "",
          "type": "uint256"
        },
        {
          "name": "",
          "type": "uint256"
        }
      ],
      "name": "trainedModels",
      "outputs": [
        {
          "name": "id",
          "type": "uint256"
        },
        {
          "name": "datasetUrl",
          "type": "string"
        },
        {
          "name": "weight",
          "type": "int256"
        },
        {
          "name": "bias",
          "type": "int256"
        },
        {
          "name": "payment",
          "type": "uint256"
        },
        {
          "name": "timestamp",
          "type": "uint256"
        },
        {
          "name": "owner",
          "type": "address"
        }
      ],
      "payable": false,
      "stateMutability": "view",
      "type": "function"
    },
    {
      "anonymous": false,
      "inputs": [
        {
          "indexed": true,
          "name": "id",
          "type": "uint256"
        },
        {
          "indexed": true,
          "name": "timestamp",
          "type": "uint256"
        }
      ],
      "name": "AddedJob",
      "type": "event"
    },
    {
      "anonymous": false,
      "inputs": [
        {
          "indexed": true,
          "name": "id",
          "type": "uint256"
        },
        {
          "indexed": true,
          "name": "timestamp",
          "type": "uint256"
        },
        {
          "indexed": true,
          "name": "sender",
          "type": "address"
        }
      ],
      "name": "AddedResult",
      "type": "event"
    },
    {
      "constant": false,
      "inputs": [
        {
          "name": "_dataSetUrl",
          "type": "string"
        }
      ],
      "name": "uploadJob",
      "outputs": [],
      "payable": true,
      "stateMutability": "payable",
      "type": "function"
    },
    {
      "constant": false,
      "inputs": [
        {
          "name": "_id",
          "type": "uint256"
        },
        {
          "name": "_weight",
          "type": "int256"
        },
        {
          "name": "_bias",
          "type": "int256"
        }
      ],
      "name": "uploadResult",
      "outputs": [],
      "payable": false,
      "stateMutability": "nonpayable",
      "type": "function"
    },
    {
      "constant": false,
      "inputs": [
        {
          "name": "_id",
          "type": "uint256"
        },
        {
          "name": "_arrayIdSelected",
          "type": "uint256"
        }
      ],
      "name": "chooseResult",
      "outputs": [],
      "payable": false,
      "stateMutability": "nonpayable",
      "type": "function"
    },
    {
      "constant": true,
      "inputs": [
        {
          "name": "_results",
          "type": "int256[]"
        },
        {
          "name": "_weight",
          "type": "int256"
        },
        {
          "name": "_bias",
          "type": "int256"
        },
        {
          "name": "_xs",
          "type": "int256[]"
        }
      ],
      "name": "cost",
      "outputs": [
        {
          "name": "",
          "type": "int256"
        }
      ],
      "payable": false,
      "stateMutability": "pure",
      "type": "function"
    },
    {
      "constant": true,
      "inputs": [
        {
          "name": "id",
          "type": "uint256"
        }
      ],
      "name": "getModel",
      "outputs": [
        {
          "name": "",
          "type": "string"
        },
        {
          "name": "",
          "type": "uint256"
        },
        {
          "name": "",
          "type": "uint256"
        }
      ],
      "payable": false,
      "stateMutability": "view",
      "type": "function"
    }
  ],
  "bytecode": "0x608060405234801561001057600080fd5b506114d9806100206000396000f3fe608060405260043610610098576000357c0100000000000000000000000000000000000000000000000000000000900480636d3616941161006b5780636d361694146102d25780637e19dcb0146103945780638e3494a9146104a8578063a656e6121461062957610098565b8063143504a11461009d5780634bfbbe0b146101585780635c72e60c146101835780636a030ca9146101c8575b600080fd5b610156600480360360208110156100b357600080fd5b81019080803590602001906401000000008111156100d057600080fd5b8201836020820111156100e257600080fd5b8035906020019184600183028401116401000000008311171561010457600080fd5b91908080601f016020809104026020016040519081016040528093929190818152602001838380828437600081840152601f19601f820116905080830192505050505050509192919290505050610678565b005b34801561016457600080fd5b5061016d61081e565b6040518082815260200191505060405180910390f35b34801561018f57600080fd5b506101c6600480360360408110156101a657600080fd5b810190808035906020019092919080359060200190929190505050610824565b005b3480156101d457600080fd5b50610201600480360360208110156101eb57600080fd5b8101908080359060200190929190505050610ce1565b60405180888152602001806020018781526020018681526020018581526020018481526020018373ffffffffffffffffffffffffffffffffffffffff1673ffffffffffffffffffffffffffffffffffffffff168152602001828103825288818151815260200191508051906020019080838360005b83811015610291578082015181840152602081019050610276565b50505050905090810190601f1680156102be5780820380516001836020036101000a031916815260200191505b509850505050505050505060405180910390f35b3480156102de57600080fd5b5061030b600480360360208110156102f557600080fd5b8101908080359060200190929190505050610ddb565b6040518080602001848152602001838152602001828103825285818151815260200191508051906020019080838360005b8381101561035757808201518184015260208101905061033c565b50505050905090810190601f1680156103845780820380516001836020036101000a031916815260200191505b5094505050505060405180910390f35b3480156103a057600080fd5b506103d7600480360360408110156103b757600080fd5b810190808035906020019092919080359060200190929190505050610eca565b60405180888152602001806020018781526020018681526020018581526020018481526020018373ffffffffffffffffffffffffffffffffffffffff1673ffffffffffffffffffffffffffffffffffffffff168152602001828103825288818151815260200191508051906020019080838360005b8381101561046757808201518184015260208101905061044c565b50505050905090810190601f1680156104945780820380516001836020036101000a031916815260200191505b509850505050505050505060405180910390f35b3480156104b457600080fd5b50610613600480360360808110156104cb57600080fd5b81019080803590602001906401000000008111156104e857600080fd5b8201836020820111156104fa57600080fd5b8035906020019184602083028401116401000000008311171561051c57600080fd5b919080806020026020016040519081016040528093929190818152602001838360200280828437600081840152601f19601f82011690508083019250505050505050919291929080359060200190929190803590602001909291908035906020019064010000000081111561059057600080fd5b8201836020820111156105a257600080fd5b803590602001918460208302840111640100000000831117156105c457600080fd5b919080806020026020016040519081016040528093929190818152602001838360200280828437600081840152601f19601f820116905080830192505050505050509192919290505050610fe0565b6040518082815260200191505060405180910390f35b34801561063557600080fd5b506106766004803603606081101561064c57600080fd5b810190808035906020019092919080359060200190929190803590602001909291905050506110ec565b005b6000341115156106d3576040517f08c379a00000000000000000000000000000000000000000000000000000000081526004018080602001828103825260328152602001806114436032913960400191505060405180910390fd5b6106db611325565b60e060405190810160405280600254815260200183815260200160008152602001600081526020013481526020014281526020013373ffffffffffffffffffffffffffffffffffffffff168152509050806000806002548152602001908152602001600020600082015181600001556020820151816001019080519060200190610766929190611379565b5060408201518160020155606082015181600301556080820151816004015560a0820151816005015560c08201518160060160006101000a81548173ffffffffffffffffffffffffffffffffffffffff021916908373ffffffffffffffffffffffffffffffffffffffff160217905550905050426002547f8516e0a572a5a8b5b95423c55e2fa449c89b1c1754edc9bdae4fdb78f11df34760405160405180910390a360016002600082825401925050819055505050565b60025481565b61082c611325565b60008084815260200190815260200160002060e0604051908101604052908160008201548152602001600182018054600181600116156101000203166002900480601f0160208091040260200160405190810160405280929190818152602001828054600181600116156101000203166002900480156108ed5780601f106108c2576101008083540402835291602001916108ed565b820191906000526020600020905b8154815290600101906020018083116108d057829003601f168201915b50505050508152602001600282015481526020016003820154815260200160048201548152602001600582015481526020016006820160009054906101000a900473ffffffffffffffffffffffffffffffffffffffff1673ffffffffffffffffffffffffffffffffffffffff1673ffffffffffffffffffffffffffffffffffffffff16815250509050606060016000858152602001908152602001600020805480602002602001604051908101604052809291908181526020016000905b82821015610b08578382906000526020600020906007020160e0604051908101604052908160008201548152602001600182018054600181600116156101000203166002900480601f016020809104026020016040519081016040528092919081815260200182805460018160011615610100020316600290048015610a725780601f10610a4757610100808354040283529160200191610a72565b820191906000526020600020905b815481529060010190602001808311610a5557829003601f168201915b50505050508152602001600282015481526020016003820154815260200160048201548152602001600582015481526020016006820160009054906101000a900473ffffffffffffffffffffffffffffffffffffffff1673ffffffffffffffffffffffffffffffffffffffff1673ffffffffffffffffffffffffffffffffffffffff1681525050815260200190600101906109ab565b5050505090506203f4808260a0015142031015610c14578160c0015173ffffffffffffffffffffffffffffffffffffffff163373ffffffffffffffffffffffffffffffffffffffff16141515610ba9576040517f08c379a000000000000000000000000000000000000000000000000000000000815260040180806020018281038252602481526020018061141f6024913960400191505060405180910390fd5b8083815181101515610bb757fe5b9060200190602002015160c0015173ffffffffffffffffffffffffffffffffffffffff166108fc83608001519081150290604051600060405180830381858888f19350505050158015610c0e573d6000803e3d6000fd5b50610cdb565b600081511115610c8a57806000815181101515610c2d57fe5b9060200190602002015160c0015173ffffffffffffffffffffffffffffffffffffffff166108fc83608001519081150290604051600060405180830381858888f19350505050158015610c84573d6000803e3d6000fd5b50610cda565b8160c0015173ffffffffffffffffffffffffffffffffffffffff166108fc83608001519081150290604051600060405180830381858888f19350505050158015610cd8573d6000803e3d6000fd5b505b5b50505050565b6000602052806000526040600020600091509050806000015490806001018054600181600116156101000203166002900480601f016020809104026020016040519081016040528092919081815260200182805460018160011615610100020316600290048015610d935780601f10610d6857610100808354040283529160200191610d93565b820191906000526020600020905b815481529060010190602001808311610d7657829003601f168201915b5050505050908060020154908060030154908060040154908060050154908060060160009054906101000a900473ffffffffffffffffffffffffffffffffffffffff16905087565b60606000806000808581526020019081526020016000206001016000808681526020019081526020016000206004015460008087815260200190815260200160002060050154828054600181600116156101000203166002900480601f016020809104026020016040519081016040528092919081815260200182805460018160011615610100020316600290048015610eb65780601f10610e8b57610100808354040283529160200191610eb6565b820191906000526020600020905b815481529060010190602001808311610e9957829003601f168201915b505050505092509250925092509193909250565b600160205281600052604060002081815481101515610ee557fe5b906000526020600020906007020160009150915050806000015490806001018054600181600116156101000203166002900480601f016020809104026020016040519081016040528092919081815260200182805460018160011615610100020316600290048015610f985780601f10610f6d57610100808354040283529160200191610f98565b820191906000526020600020905b815481529060010190602001808311610f7b57829003601f168201915b5050505050908060020154908060030154908060040154908060050154908060060160009054906101000a900473ffffffffffffffffffffffffffffffffffffffff16905087565b60008151855114151561103e576040517f08c379a00000000000000000000000000000000000000000000000000000000081526004018080602001828103825260398152602001806114756039913960400191505060405180910390fd5b600080905060008351905060008090505b818110156110d35785858281518110151561106657fe5b90602001906020020151880201888281518110151561108157fe5b906020019060200201510386868381518110151561109b57fe5b9060200190602002015189020189838151811015156110b657fe5b90602001906020020151030283019250808060010191505061104f565b5080828115156110df57fe5b0592505050949350505050565b6110f4611325565b60e0604051908101604052808581526020016000808781526020019081526020016000206001018054600181600116156101000203166002900480601f0160208091040260200160405190810160405280929190818152602001828054600181600116156101000203166002900480156111af5780601f10611184576101008083540402835291602001916111af565b820191906000526020600020905b81548152906001019060200180831161119257829003601f168201915b505050505081526020018481526020018381526020016000808781526020019081526020016000206004015481526020014281526020013373ffffffffffffffffffffffffffffffffffffffff168152509050600160008581526020019081526020016000208190806001815401808255809150509060018203906000526020600020906007020160009091929091909150600082015181600001556020820151816001019080519060200190611267929190611379565b5060408201518160020155606082015181600301556080820151816004015560a0820151816005015560c08201518160060160006101000a81548173ffffffffffffffffffffffffffffffffffffffff021916908373ffffffffffffffffffffffffffffffffffffffff1602179055505050503373ffffffffffffffffffffffffffffffffffffffff1642857f66af09712382721ef8164fd226e9b9bb16c2853c40b9bb299f6a01e42348b69860405160405180910390a450505050565b60e060405190810160405280600081526020016060815260200160008152602001600081526020016000815260200160008152602001600073ffffffffffffffffffffffffffffffffffffffff1681525090565b828054600181600116156101000203166002900490600052602060002090601f016020900481019282601f106113ba57805160ff19168380011785556113e8565b828001600101855582156113e8579182015b828111156113e75782518255916020019190600101906113cc565b5b5090506113f591906113f9565b5090565b61141b91905b808211156114175760008160009055506001016113ff565b5090565b9056fe4f6e6c7920746865206f776e65722063616e2073656c656374207468652077696e6e6572596f75206d7573742073656e6420736f6d6520657468657220746f2067657420796f7572206d6f64656c20747261696e65645468657265206d757374206265207468652073616d65206e756d626572206f66205f726573756c7473207468616e205f78732076616c756573a165627a7a72305820399a58df6a8360142b9ac4589a7b3a8ac05eb0313991b8f8e5bf9e0022f1eae40029",
  "source": "// We need a way for buyers and sellers to interact, a function to place an order for training a model and a function to submit training by sellers after they've trained the model with their results. The sellers will upload the dataset json url they got and the resulting weight and bias. The buyers will upload 1 or more datasets with an array of URLs which have to be json files that can be uploaded for free on github, from 1 to 10 elements of data to verify the cost of the trained model and the payment for training. Each model will have a maximum time of 3 days to be trained which means that the buyer has to choose a winner before 3 full days.\n// We also need functions to verify the quality of the trained model which will be done with a simple cost function that will return the error for a particular data field.\npragma solidity ^0.5.4;\n\ncontract MachineLearningMarketplace {\n    event AddedJob(uint256 indexed id, uint256 indexed timestamp);\n    event AddedResult(uint256 indexed id, uint256 indexed timestamp, address indexed sender);\n\n    struct Model {\n        uint256 id;\n        string datasetUrl;\n        int256 weight;\n        int256 bias;\n        uint256 payment;\n        uint256 timestamp;\n        address payable owner;\n    }\n    mapping(uint256 => Model) public models;\n    mapping(uint256 => Model[]) public trainedModels;\n    uint256 public latestId;\n\n    /// @notice To upload a model in order to train it\n    /// @param _dataSetUrl The url with the json containing the array of data\n    function uploadJob(string memory _dataSetUrl) public payable {\n        require(msg.value > 0, 'You must send some ether to get your model trained');\n        Model memory m = Model(latestId, _dataSetUrl, 0, 0, msg.value, now, msg.sender);\n        models[latestId] = m;\n        emit AddedJob(latestId, now);\n        latestId += 1;\n    }\n\n    /// @notice To upload the result of a trained model\n    /// @param _id The id of the trained model\n    /// @param _weight The final trained weight\n    /// @param _bias The final trained bias\n    function uploadResult(uint256 _id, int256 _weight, int256 _bias) public {\n        Model memory m = Model(_id, models[_id].datasetUrl, _weight, _bias, models[_id].payment, now, msg.sender);\n        trainedModels[_id].push(m);\n        emit AddedResult(_id, now, msg.sender);\n    }\n\n    /// @notice To choose a winner by the sender\n    /// @param _id The id of the model\n    /// @param _arrayIdSelected The array index of the selected winner\n    function chooseResult(uint256 _id, uint256 _arrayIdSelected) public {\n        Model memory m = models[_id];\n        Model[] memory t = trainedModels[_id];\n        // If 3 days have passed the winner will be the first one, otherwise the owner is allowed to choose a winner before 3 full days\n        if(now - m.timestamp < 3 days) {\n            require(msg.sender == m.owner, 'Only the owner can select the winner');\n            t[_arrayIdSelected].owner.transfer(m.payment);\n        } else {\n            // If there's more than one result, send it to the first\n            if(t.length > 0) {\n                t[0].owner.transfer(m.payment);\n            } else {\n                // Send it to the owner if none applied to the job\n                m.owner.transfer(m.payment);\n            }\n        }\n    }\n\n    /// @notice The cost function implemented in solidity\n    /// @param _results The resulting uint256 for a particular data element\n    /// @param _weight The weight of the trained model\n    /// @param _bias The bias of the trained model\n    /// @param _xs The independent variable for our trained model to test the prediction\n    /// @return int256 Returns the total error of the model\n    function cost(int256[] memory _results, int256 _weight, int256 _bias, int256[] memory _xs) public pure returns(int256) {\n        require(_results.length == _xs.length, 'There must be the same number of _results than _xs values');\n        int256 error = 0; // Notice the int instead of uint since we want negative values too\n        uint256 numberOfDataPoints = _xs.length;\n        for(uint256 i = 0; i < numberOfDataPoints; i++) {\n            error += (_results[i] - (_weight * _xs[i] + _bias)) * (_results[i] - (_weight * _xs[i] + _bias));\n        }\n        return error / int256(numberOfDataPoints);\n    }\n\n    /// @notice To get a model dataset, payment and timestamp\n    /// @param id The id of the model to get the dataset, payment and timestamp\n    /// @return Returns the dataset string url, payment and timestamp\n    function getModel(uint256 id) public view returns(string memory, uint256, uint256) {\n        return (models[id].datasetUrl, models[id].payment, models[id].timestamp);\n    }\n}\n",
  "sourcePath": "/Users/merunas/Desktop/machine-learning-ethereum/contracts/MachineLearningMarketplace.sol",
  "compiler": {
    "name": "solc",
    "version": "0.5.4+commit.9549d8ff.Emscripten.clang"
  },
  "schemaVersion": "3.0.0-beta.2",
  "updatedAt": "2019-03-21T16:50:46.502Z",
  "devdoc": {
    "methods": {
      "chooseResult(uint256,uint256)": {
        "params": {
          "_arrayIdSelected": "The array index of the selected winner",
          "_id": "The id of the model"
        }
      },
      "cost(int256[],int256,int256,int256[])": {
        "params": {
          "_bias": "The bias of the trained model",
          "_results": "The resulting uint256 for a particular data element",
          "_weight": "The weight of the trained model",
          "_xs": "The independent variable for our trained model to test the prediction"
        },
        "return": "int256 Returns the total error of the model"
      },
      "getModel(uint256)": {
        "params": {
          "id": "The id of the model to get the dataset, payment and timestamp"
        },
        "return": "Returns the dataset string url, payment and timestamp"
      },
      "uploadJob(string)": {
        "params": {
          "_dataSetUrl": "The url with the json containing the array of data"
        }
      },
      "uploadResult(uint256,int256,int256)": {
        "params": {
          "_bias": "The final trained bias",
          "_id": "The id of the trained model",
          "_weight": "The final trained weight"
        }
      }
    }
  },
  "userdoc": {
    "methods": {
      "chooseResult(uint256,uint256)": {
        "notice": "To choose a winner by the sender"
      },
      "cost(int256[],int256,int256,int256[])": {
        "notice": "The cost function implemented in solidity"
      },
      "getModel(uint256)": {
        "notice": "To get a model dataset, payment and timestamp"
      },
      "uploadJob(string)": {
        "notice": "To upload a model in order to train it"
      },
      "uploadResult(uint256,int256,int256)": {
        "notice": "To upload the result of a trained model"
      }
    }
  }
}